:100000000A128A11A82E00308A000408840A820786
:100010000034543452344F344E3443344134523427
:1000200054342E3463346F346D34003454346134BA
:10003000633468346C346F3467342E3463346F3413
:040040006D340034E7
:100D5000F80183010A128A11AD2E831688018701DA
:100D60000A128A1198270A128A1107120A128A1186
:100D700035270A128A1101300A128A111A270A121B
:100D80008A110E300A128A114D270A128A11023076
:100D90000A128A11FF260A128A1101300A128A11D8
:100DA0004D270A128A11C83007160A128A11D6274F
:100DB0000A128A11C8300A128A11D6270A128A1119
:100DC000C8300A128A11D6270A128A11C8300A12AC
:100DD0008A11D6270A128A11C8300A128A11D62718
:100DE0000A128A11C8300A128A11D6270A128A11E9
:100DF000C8300A128A11D6270A128A11B52EF300BA
:100E00008710C03EF5000D30F400F40B052F750E71
:100E1000FA270A128A1180270A128A11D0270A1289
:100E20008A117508F8000F30F805780880270A1233
:100E30008A11D02FF3008710803EF5000D30F400AA
:100E4000F40B202F750EFA270A128A1180270A1236
:100E50008A11D0270A128A117508F8000F30F80598
:100E6000780880270A128A11D02F0D308710F300DE
:100E7000F30B382FF801780880270A128A11D0273F
:100E80000A128A11F801F80A780880270A128A11D2
:100E9000D0270A128A110230D62FF5008714750860
:100EA00084000A128A1103200A128A1100380319D9
:100EB00008000D30F400F40B5B2F750884000A1253
:100EC0008A1103200A128A11F300730EFA270A12FC
:100ED0008A1180270A128A11D027750884000A1205
:100EE0008A1103200A128A11F8000F30F8057808D9
:100EF00080270A128A11D0270A128A11F50A4F2F69
:100F0000F000701C862F83120814882F831208109B
:100F1000F01C8C2F88148D2F8810701D912F0815B0
:100F2000922F0811F01D962F8815080088110800CF
:100F300083120F3087100710D6270A128A11033048
:100F4000F800780880270A128A11D0270A128A111D
:100F50000530D6270A128A11D0270A128A11433087
:100F6000F600F60BB12FD0270A128A114330F70092
:100F7000F70BB82F0230F800780880270A128A1180
:100F8000D0270A128A112830E2270A128A110C305F
:100F9000E2270A128A1135270A128A110630E22F37
:100FA000831205300714D62707100800F00004301C
:100FB000F1005330F200F20BDB2FF10BD92FF00BC5
:100FC000D72F0800F4000D30F300F30BE52F740E5B
:100FD000FA270A128A1180270A128A11D0270A12C8
:100FE0008A117408F8000F30F805780880270A1273
:100FF0008A11D02F0F39F8000F30F8057808080053
:00000001FF
